:03210000022106B3
:03215F0002210357
:032103000221AD09
:10216200AF82C2998F993099FD223098FDAF99C202
:10217200988F8222AD82AE83AFF08D828E838FF0F4
:1021820012221DFC60180DBD00010E8C82C007C01A
:1021920006C005122162D005D006D00780DC227568
:1021A2009E83759D2D759852C2AC221221A1758213
:1021B2003E12216275823E12216275823E122162B6
:1021C20090223D75F08012217690225575F0801292
:1021D200217612216CAF82BF650B90226475F0806C
:1021E200122176800990227375F080122176902256
:1021F2007675F08012217612216CAF82BF710B903E
:10220200228575F080122176800990229475F080E3
:0B22120012217612216C12216280F86C
:10223D005468697320697320737472696E67206FB7
:10224D006620636861722E00507265737320276576
:10225D0027206B65792E00596F7520707265737329
:10226D00202745272E004E6F00507265737320276F
:10227D007127206B65792E00596F7520707265730B
:0D228D0073202751272E004E6F204E6F004A
:06213500E478FFF6D8FD7E
:102113007900E94400601B7A0090229A780175A047
:1021230000E493F2A308B8000205A0D9F4DAF2752B
:02213300A0FF0B
:10213B007800E84400600A790175A000E4F309D83F
:10214B00FC7800E84400600C7900900001E4F0A3F7
:04215B00D8FCD9FAD9
:0D210600758107122239E582600302210372
:10221D0020F71430F6148883A88220F507E6A883EA
:10222D0075830022E280F7E49322E022758200227A
:00000001FF
