:03210000022106B3
:03215F0002210357
:032103000221C3F3
:10216200C008858108AD847584FFE50824FDF8E682
:10217200F08D84D00822AD847584FFE0FE8D848EBC
:102182008222AE82C006908007122162158122ACA3
:1021920082AD83AEF0FF780079007A007B00C3E85D
:1021A2009CE99DEA9EEB64808FF063F08095F0508D
:1021B2000F08B8000909B900050ABA00E10B80DE70
:1021C200229000FF122184902710E4F5F012219151
:1021D200900081122184901388E4F5F012219190ED
:1021E20000C0122184901388E4F5F012219190002E
:1021F20060122184901388E4F5F01221919000304E
:10220200122184901388E4F5F012219190001812A3
:102212002184901388E4F5F012219190000C122190
:1022220084901388E4F5F012219190000612218423
:10223200901388E4F5F0122191900003122184900A
:0B2242001388E4F5F01221910221D274
:06213500E478FFF6D8FD7E
:102113007900E94400601B7A00902251780175A090
:1021230000E493F2A308B8000205A0D9F4DAF2752B
:02213300A0FF0B
:10213B007800E84400600A790175A000E4F309D83F
:10214B00FC7800E84400600C7900900001E4F0A3F7
:04215B00D8FCD9FAD9
:0D21060075810812224DE58260030221035D
:04224D007582002274
:00000001FF
