:03210000022106B3
:0C215F00900001E4F0C201D20002210354
:032103000223D0E4
:10216B00C008858108AD847584FFE50824FDF8E679
:10217B00F08D84D00822A208920022AF8274014F06
:10218B00FEC007C00690000612216B1581D00753C5
:10219B0007FEC00790000612216B15817E007F00A1
:1021AB000EBE00010FC3EE942CEF940140F22230CF
:1021BB0008067E027F0080047E007F00740C4EFFB9
:1021CB003009067D017E0080047D007E00ED420714
:1021DB00C00790000112216B1581758208122186B0
:1021EB007F00BFC80050030F80F8227401C0E0903D
:1021FB00000112216B15817582081221867E007FEA
:10220B00000EBE00010FC3EE9440EF648094864035
:10221B00F0227E007F000EBE00010FC3EE9440EF54
:10222B00949C40F27430C0E090000112216B158138
:10223B007582001221867E007F000EBE00010FC347
:10224B00EE9410EF942740F27430C0E0900001122E
:10225B00216B15817582001221867E007F000EBED8
:10226B0000010FC3EE94E8EF940340F27430C0E02A
:10227B0090000112216B15817582001221867E0060
:10228B007F000EBE00010FC3EE9464EF940040F28A
:10229B007438C0E090000112216B15817582001219
:1022AB0021867408C0E090000112216B15817582A4
:1022BB00001221867401C0E090000112216B158180
:1022CB007582001221867E007F000EBE00010FC3B7
:1022DB00EE9440EF940640F27406C0E090000112B9
:1022EB00216B1581758200122186740FC0E090005E
:1022FB000112216B15817582001221867408C0E0D2
:10230B0090000612216B158122AF82900001E02410
:10231B00F05007900001E4F0D201C00790000112C9
:10232B00216B158175820C122186300007900001FC
:10233B00E02401F022AE823008067D407F0080044D
:10234B007D007F00ED2EFE430680C006900001123B
:10235B00216B1581758208022186AD82AE83AFF0A9
:10236B00A2009208D2008D828E838FF012243EFC45
:10237B00601C0DBD00010E8C82C007C006C005C0DD
:10238B0021122314D021D005D006D00780D8A20863
:10239B00920022AC82AD83AEF0FF780079007A0018
:1023AB007B00C3E89CE99DEA9EEB64808FF063F0B1
:1023BB008095F0500F08B8000909B900050ABA005A
:1023CB00E10B80DE2212221D1221F675823E1223B2
:1023DB001490245E75F080122365D2F085F0219065
:1023EB00000112234090246A75F080122365902718
:1023FB0010E4F5F012239ED2F085F021900001122B
:10240B00234090247B75F080122365902710E4F510
:10241B00F012239ED2F085F0219000011223409000
:10242B00248A75F080122365902710E4F5F01223AF
:03243B009E80A7D9
:10245E00496E666F726D6174696F6E0054686520A7
:10246E00666972737420737472696E6700596F7542
:10247E0020617265206372617A79210054686972F5
:0A248E006420537472696E672E001B
:06213500E478FFF6D8FD7E
:102113007900E94400601B7A00902498780275A046
:1021230000E493F2A308B8000205A0D9F4DAF2752B
:02213300A0FF0B
:10213B007800E84400600A790175A000E4F309D83F
:10214B00FC7801E84400600C7901900001E4F0A3F5
:04215B00D8FCD9FAD9
:0D21060075812112245AE582600302210335
:10243E0020F71430F6148883A88220F507E6A883C7
:10244E0075830022E280F7E49322E0227582002257
:00000001FF
