:03210000022106B3
:03215F0002210357
:032103000221BBFB
:10216200C008858108AD847584FFE50824FDF8E682
:10217200F08D84D00822AE82C006908007122162C0
:1021820015812275890122758C57758A0AC28DD2F2
:102192008C108D0280FBC28C227EFA7F00C007C0A9
:1021A20006122189D006D007EE24FFFCEF34FFFD92
:1021B2008C068D07EC4D70E52212218590000112EC
:1021C200217812219B90000312217812219B90000A
:1021D2000712217812219B90000F12217812219B65
:1021E20090001F12217812219B90003F1221781239
:1021F200219B90007F12217812219B9000FF1221D7
:062202007812219B80B65A
:06213500E478FFF6D8FD7E
:102113007900E94400601B7A0090220C780175A0D5
:1021230000E493F2A308B8000205A0D9F4DAF2752B
:02213300A0FF0B
:10213B007800E84400600A790175A000E4F309D83F
:10214B00FC7800E84400600C7900900001E4F0A3F7
:04215B00D8FCD9FAD9
:0D210600758108122208E5826003022103A2
:0422080075820022B9
:00000001FF
